:020000040800F2
:100000001808002001010008EF1D00081B1C000853
:10001000B11D0008F5040008DD2200080000000002
:10002000000000000000000000000000E51E0008C5
:10003000F704000800000000F11D0008E71E00089A
:100040001B0100081B0100081B0100081B01000820
:100050001B0100081B010008C50800081B0100085F
:100060001B0100081B0100081B0100081B01000800
:100070001B0100081B0100081B0100081B010008F0
:100080001B0100081B0100081B0100081B010008E0
:100090001B0100081B0100081B0100081B010008D0
:1000A0001B0100081B0100081B0100081B010008C0
:1000B000811F00081B0100081B0100081B0100082C
:1000C0001B0100081B0100081B0100081B010008A0
:1000D0001B010008D12200081B0100081B010008B9
:1000E0001B0100081B0100081B010008DFF80CD0F1
:1000F00000F080F800480047B527000818080020E5
:100100000648804706480047FEE7FEE7FEE7FEE7B1
:10011000FEE7FEE7FEE7FEE7FEE7FEE7391F000821
:10012000ED000008202A04DB203A21FA02F0002129
:10013000704721FA02F3D040C2F1200291400843F7
:1001400019467047D2B201E000F8012B491EFBD2DC
:1001500070470022F6E710B513460A4604461946D2
:10016000FFF7F0FF204610BD421C10F8011B0029CC
:10017000FBD1801A704730B504460020034600E0EA
:100180005B1C934203D2E05CCD5C401BF8D030BDD9
:100190002DE9F05F0546002092469B4688460646BC
:1001A000814640241BE02846414647462246FFF749
:1001B000B9FF53465A46C01A914110D3114618460A
:1001C000224600F029F82D1A67EB01084F46224617
:1001D0000120002100F020F817EB00094E41201EFD
:1001E000A4F10104DFDC484631462A464346BDE817
:1001F000F09F0000064C074D06E0E06840F0010368
:1002000094E8070098471034AC42F6D3FFF772FF2A
:10021000F4290008142A0008202A04DB203A00FAF6
:1002200002F1002070479140C2F1200320FA03F34D
:1002300019439040704700002DE9F047DFF828810E
:100240004FF000098CB0C8F80490D0F8061008915F
:100250004189ADF82410016800918188ADF804103F
:10026000C669D0F82600414F4D460A9005EB85003F
:1002700007EB400104220AA8FFF77DFF00286CD19C
:1002800000244FF0010A00BF04EB840007EB40019B
:10029000062208A8091DFFF76EFF08B9C8F804A0D8
:1002A000641C052CF0DBD8F804004446002854D127
:1002B0002FA001F0FDFF0AA800F000F93749012244
:1002C0003748C1F80090910200F072FC9DF82200BE
:1002D0000DF110089DF825309DF824209DF823107D
:1002E00088E80F009DF821309DF82020310EC6F3DC
:1002F00007408DE80F00C6F30723F2B229492A48C8
:1003000001F0EEFF284801F0D3FF2278A04627A194
:100310002548521E01F0E4FF234801F0C9FF0124E3
:10032000DFF8ACA015E000BF04EB84020AEB420149
:100330001D4891F803C08B7849788DE80A101AF8A7
:100340001230224623A101F0CBFF174801F0B0FF85
:10035000641C98F800008442E6DB6D1C052D85DBEB
:100360000CB0BDE8F08700000C000020E403002082
:100370000D0A436F207468696574206269206C619E
:100380002078616D206E6861702076616F206865ED
:100390002074686F6E670D0A0000000014000020D2
:1003A000000C0140202900085C000020536F2074DD
:1003B000686965742062692062692074616E2063D7
:1003C0006F6E67206C613A2025690D0A00000000FD
:1003D0009800002044696120636869207468696539
:1003E000742062692025692049702025692E2569BD
:1003F0002E25692E25690D0A0000000010B51BA4EA
:100400008EB0D4E90034CDE90B340093BDF8303020
:10041000ADF804300B9C0894ADF824300068CDF89A
:1004200026001068CDF806009088ADF80A00106824
:10043000CDF816009088ADF81A00086807904FF4C0
:10044000C160ADF80C0008214FF48070ADF81010B9
:1004500040F20641ADF80E00ADF81210ADF81400F0
:100460002A21684601F0A5FC0EB010BDFFFFFFFF7A
:10047000FFFF000070B504780F4A002101EB8103F3
:1004800012F81350AC4210D102EB430345785E786A
:10049000B5420AD185789E78B54206D1C578DB7819
:1004A0009D4202D1491C48B270BD491C0829E5DBB8
:1004B0004FF0FF3070BD00009800002010B50446DA
:1004C000FFF7D8FF401C0FD10849094B0A7802EB0F
:1004D000820003EB400023680360521CD0B2087016
:1004E000082801D10020087010BD00000C00002079
:1004F00098000020FEE7704770B50E4E0C4605468A
:1005000000220221304600F053FB3A2001F094FC17
:1005100005E06D1EADB201F07DFC04F8010B002D6D
:10052000F7D1002020703046BDE870400122022142
:1005300000F03EBB000C014070B50A4D00F06004B5
:10054000287884420CD003221F21A02000F000F95B
:1005500062092C70BDE870401F21802000F0F8B8BF
:1005600070BD00000000002001A001F0A1BE00004D
:100570004B686F692074616F206D6F64756C6520C6
:10058000454E4332384A36302074686174206261C7
:100590006920210D0A00000010B50446FFF7CCFFCA
:1005A0002146BDE81040002000F004B800213A20A8
:1005B000AFF3008070B50D4E0C46054600220221B7
:1005C000304600F0F5FA04F01F00284301F034FC37
:1005D000200601D501F01EFC01F01CFC044601229E
:1005E0000221304600F0E4FA204670BD000C0140C4
:1005F0002DE9F04107460E4600243920FFF7CCFFD5
:10060000B8B31D4D0020698800F084F8FFF7CEFFD5
:100610006880FFF7CBFF698841EA00206880FFF718
:10062000C5FF0446FFF7C2FF44EA0020001F84B262
:10063000B44200D93446FFF7B9FF0646FFF7B6FFCC
:1006400046EA0020000601D4002403E03946204693
:10065000FFF752FF6988481EB0F5406F01DB40F696
:10066000FF310C2000F056F840221E21802000F0BF
:100670006FF82046BDE8F0810000002070B50C4600
:1006800005461F20FFF788FF0007FAD44FF44061AA
:10069000022000F03FF804F5406081B2062000F02F
:1006A00039F8002211467A2000F052F829462046F7
:1006B00000F008F8BDE8704008221F21802000F0FB
:1006C00047B8000070B50C4E0C46054600220221CA
:1006D000304600F06DFA7A2002E000BF14F8010BFA
:1006E00001F0AAFB6D1EADB2F8D23046BDE87040F5
:1006F0000122022100F05CBA000C014070B50C46EA
:100700000546FFF719FF22462946BDE87040402004
:1007100000F01EB870B50D460446C9B2FFF7EEFFF3
:10072000290A641CE0B2BDE87040FFF7E7BF10B5CE
:100730000C460146D420FFF7E1FF2146D620FFF703
:10074000E9FFEA20FFF728FFC007FAD110BD00003B
:100750002DE9F0410B4E17460C46054600220221BA
:10076000304600F025FA04F01F00284301F064FB36
:10077000384601F061FB3046BDE8F041012202211C
:1007800000F016BA000C014010B54D4C00221F219C
:100790006060FF20FFF7DCFF022000F0E3F81D217E
:1007A0000020FFF707FF0028F9D00020FFF7F4FE34
:1007B000FA2803D0BDE81040FFF7D6BE00206080C5
:1007C00001460820FFF7A6FF40F6FF310A20FFF799
:1007D000A1FF4FF440610420FFF79CFF41F2FF119D
:1007E0000620FFF797FF00210C20FFF793FF002161
:1007F0000E20FFF78FFF0D21C020FFF77FFF0021A4
:10080000C120FFF77BFF3222C2218020FFF7A0FF2B
:1008100040F61241C620FFF77DFF1221C420FFF7EA
:100820006DFF40F2DC51CA20FFF774FF0021E42085
:10083000FFF764FF0021E520FFF760FF2021E220A1
:10084000FFF75CFF0721E320FFF758FF1921E020A5
:10085000FFF754FF9821E120FFF750FFE420FFF756
:100860009BFEE520FFF798FEE220FFF795FEE320D0
:10087000FFF792FEE020FFF78FFEE120FFF78CFEEE
:100880004FF480711020FFF752FF40F276411420A0
:10089000FFF74DFF1F20FFF74FFEC0221B218020D6
:1008A000FFF756FF02217520FFF728FF012000F017
:1008B00059F804221F21BDE810408020FFF748BFEF
:1008C00000000020012000F077B8000010B590F87B
:1008D00021100024022903D00421816301243DE07A
:1008E00001680A6822F00E020A6001680A6822F0B4
:1008F00001020A601A4A0168914201D1012121E0F6
:10090000174A1432914201D110211BE0144A2832B7
:10091000914201D1891515E0114A3C32914201D131
:1009200089140FE00E4A5032914202D14FF48031C7
:1009300008E00B4A6432914202D14FF4801101E089
:100940004FF08071064A083A5160012180F8211069
:10095000002180F82010416B01B18847204610BD6E
:100960000800024070B5044600F028F90546601CF6
:1009700002D004480078044400F020F9401BA04253
:10098000FAD370BD4C00002010B5012810D10949E0
:1009900001F1300208601431081FFFF72FFD054AEE
:1009A000BDE810402A32A2F11A01081DFFF726BD4A
:1009B00010BD000014000020044910B50A6802426E
:1009C00002D00860FFF7E0FF10BD000014040140F2
:1009D0002DE9F84FDFF8B891002409F1040A0AF173
:1009E000040B23460F270BF1040EC9E00125A54097
:1009F0002A40AA427DD1674ED1F804C0ACEB06086C
:100A0000B44532D014DCBCF1030F3AD009DCBCF1A0
:100A1000000F2AD0BCF1010F1CD0BCF1020F31D164
:100A20001DE0BCF1110F17D0BCF1120F2AD119E053
:100A3000B8F5881F19D006DCB8F5803F15D0B8F599
:100A4000801F1FD111E0B8F5001F0ED0B8F5041FAC
:100A500018D10AE0CB6815E0CB681B1D12E0CB680B
:100A600008330FE0CB680C330CE08B682BB1012B03
:100A70004FF0080303D0456104E0042302E0056160
:100A800000E00023FF2A01D8064601E000F1040639
:100A90004FEA840501D9A5F12005D6F8008007FAB0
:100AA00005FC28EA0C0803FA05F548EA0508C6F82B
:100AB00000804D68ED0062D5374DAE6946F0010605
:100AC000AE61AD6924F0030605F001050095334DD4
:100AD00006EB050CDCF80850A607360F07FA06F8F7
:100AE00025EA0805DFF8B880404503D14FF000083B
:100AF00017E044E0DFF8AC80404502D14FF0010838
:100B00000FE0DFF8A480404502D14FF0020808E072
:100B1000DFF89880404502D14FF0030801E04FF024
:100B2000040808FA06F848EA0508CCF808804D6879
:100B3000D9F80060ED034D4601D5164300E0964319
:100B40002E604D68DAF80060AD03554601D51643B6
:100B500000E096432E604D68DBF80060ED025D46D4
:100B600001D5164300E096432E604D68DEF8006024
:100B7000AD02754601D5164300E096432E60641C15
:100B80000D682A46E5407FF431AFBDE8F88F0000DC
:100B9000000401400000111000100240000001405C
:100BA00000080140000C0140001001400014014009
:100BB0000AB1016170470904FBE700000148806841
:100BC000704700004C000020024881680278114400
:100BD000816070474C000020074810B5016841F063
:100BE00010010160032000F075F8002000F006F805
:100BF00000F024F8002010BD0020024070B50D4D1B
:100C000004464FF47A712878B1FBF0F00A4909687C
:100C1000B1FBF0F000F001FD48B9102C07D2002222
:100C20002146501E00F036F800206C6070BD012097
:100C300070BD00004C000020580000200C4808B592
:100C4000816941F001018161816901F00101009137
:100C5000C16941F08051C161C06900F080500090CD
:100C60000448416821F0E06141F00071416008BD35
:100C70000010024000000140002809DB00F01F02C4
:100C8000012191404009800000F1E020C0F80011EE
:100C900070470000F0B40E4B1B680C46C3F30223F0
:100CA000C3F10705042D00D90425191D072901D218
:100CB000002300E0DB1E012606FA05F1491E214053
:100CC00099409E40761E16403143F0BC01F01CBB9B
:100CD0000CED00E0064900F0070208684FF6FF033C
:100CE000184040EA0220034A1043086070470000A1
:100CF0000CED00E00000FA052DE9F0470F46050075
:100D000061D0434E306800F00700B84209D2306825
:100D100020F0070038433060306800F00700B84228
:100D200051D128683B4C810712D5400703D5606834
:100D300040F4E06060602878000703D5606840F404
:100D4000605060606068A96820F0F000084360604F
:100D50002878C00728D06868012810D021680228A8
:100D600010D0890700292EDA616821F003010143C0
:100D70006160FFF723FF804641F288390DE021686A
:100D80008903EFE78901EDE7FFF718FFA0EB080102
:100D9000494502D90320BDE8F0876068696800F022
:100DA0000C00B0EB810FEFD1306800F00700B842C3
:100DB0000BD9306820F0070038433060306800F00D
:100DC0000700B84201D00120E5E72878400705D5A3
:100DD0006068E96820F4E0600843606028780007F4
:100DE00006D56068296920F4605040EAC10060605F
:100DF00000F038F86168084AC1F30311515CC8403B
:100E00000649086006480068FFF7F8FE0020C2E7C0
:100E1000002002400010024008290008580000206D
:100E2000500000200448054900684968044AC1F39D
:100E30000221515CC8407047580000200010024059
:100E4000182900080448054900684968044AC1F3A4
:100E5000C221515CC8407047580000200010024079
:100E60001829000812A185B00FC98DE80F0014A041
:100E7000144A006804905168134801F00C03042BD5
:100E800010D0082B0ED1C1F38343C9031DF8030012
:100E90000AD5516804AAC1F34041515C0A4A504343
:100EA000B0FBF1F005B0704708494843FAE700008D
:100EB00002030405060708090A0B0C0D0E0F10109B
:100EC000010200000010024000127A0000093D00FB
:100ED0002DE9F84F040070D02078C04DC00749D0EC
:100EE0006868C0F38100012807D06868C0F38100FA
:100EF000022809D16868C00306D52868800339D55F
:100F000060680028E7D035E06068B0F5803F0BD01E
:100F100010B1B0F5A02F11D0286820F480302860DF
:100F2000286820F4802002E0286840F4803028609F
:100F3000606890B1FFF742FE06460AE0286840F478
:100F400080202860F0E700BFFFF738FE801B642890
:100F500073D828688003F7D50CE0FFF72FFE06460C
:100F600005E000BFFFF72AFE801B6428F0D8286840
:100F70008003F7D420789A4E80074FF001094FF094
:100F8000000839D5686810F00C0F07D06868C0F306
:100F90008100022809D16868C00306D42868800748
:100FA00014D52069012808D110E02069B0B1C6F835
:100FB0000090FFF703FE074605E00AE1FFF7FEFD9C
:100FC000C01B0228C4D828688007F7D52868616943
:100FD00020F0F80040EAC10028600DE0C6F800806B
:100FE000FFF7ECFD074604E0FFF7E8FDC01B022811
:100FF00023D828688007F7D4207800072CD57948B3
:10100000A169D9B1C0F80090FFF7D8FD074604E008
:10101000FFF7D4FDC01B02280FD8686A8007F7D5F8
:1010200071484FF4FA510068B0FBF1F0009000BF36
:101030000098411E0091FAD20EE080E0C0F80080D6
:10104000FFF7BCFD074604E0FFF7B8FDC01B022810
:1010500075D8686A8007F7D42078400760D5E869BA
:101060000027C00008D4E86940F08050E861E869D2
:10107000012700F0805000905C480168C90513D436
:101080000168834641F480710160FFF797FD824655
:1010900006E000BFFFF792FDA0EB0A0064284ED8DF
:1010A000DBF80000C005F5D5E06801280AD008B1DA
:1010B000052813D0286A20F001002862286A20F051
:1010C000040002E0286A40F001002862E06841F272
:1010D000883B98B1FFF772FD82460BE0286A40F02A
:1010E00004002862EEE700BFFFF768FDA0EB0A01ED
:1010F00059455AD8286A8007F6D50CE0FFF75EFDFF
:10110000824605E0FFF75AFDA0EB0A0159454CD88D
:10111000286A8007F6D41FB1E86920F08050E861A2
:10112000E06988B36968C1F38101022944D00228CB
:10113000C6F8608004D0FFF741FD044638E034E093
:10114000FFF73CFD074604E0FFF738FDC01B02280F
:101150002BD828688001F7D4206AB0F5803F05D1EC
:101160006868A16820F4003008436860D4E9080189
:101170000843696821F4741108436860C6F86090F8
:10118000FFF71CFD044606E025E000BFFFF716FD53
:10119000001B022809D828688001F7D51BE000BF92
:1011A000FFF70CFD001B022802D90320BDE8F88FD1
:1011B00028688001F4D40EE00128F7D06868226A1C
:1011C00000F48031914204D1616A00F470108842C9
:1011D00001D00120EAE70020E8E70000001002400B
:1011E000000042428004424258000020007000404B
:1011F00070B5040005D00025A56294F8510010B127
:1012000006E0012070BD84F85050204600F02EF812
:10121000022084F851002068016821F0400101603B
:10122000D4E901010843D4E9031211430843616979
:101230000843218B01F400710843E1690843216AE6
:101240000843A16A084321680860A069042101EAF3
:101250001040216848602068C16921F40061C161C3
:101260006565012084F85100002070BD30B585B05F
:101270000024009401940294039400681449884265
:1012800023D11448816941F480518161816901F45D
:1012900080510491816941F00401816180690E4DA2
:1012A00000F004000490A020009002200190032090
:1012B000039069462846FFF78BFB4020CDE90004E8
:1012C000694628460294FFF783FB05B030BD000055
:1012D0000030014000100240000801402DE9F84FA5
:1012E000044690F8500000271D46164689460128FE
:1012F0000DD04FF0010B84F850B0FFF75FFC804633
:1013000094F85100BA46012804D002278EE002204A
:10131000BDE8F88FB9F1000F7DD0002E7BD00320FF
:1013200084F85100C4F854A0C4F83090A686E6862C
:10133000C4F838A0A4F83CA0A4F83EA0C4F844A087
:10134000C4F840A0A068B0F5004F04D1206801683F
:1013500041F48041016020680168490603D40168B6
:1013600041F040010160E068B0F5006F606803D0B3
:1013700030B3012E24D040E008B1012E1CD1206BE7
:1013800021680088C86006E020688168890709D55F
:10139000216B0988C160206B801C2063E08E401E99
:1013A000E08609E0FFF70AFCA0EB0800A84202D3A0
:1013B000681C01D031E07DB3E08E0028E4D11FE04D
:1013C000206B21680078087306E02068816889072F
:1013D00009D5216B09780173206B401C2063E08ED6
:1013E000401EE08609E0FFF7E9FBA0EB0800A842F9
:1013F00002D3681C01D010E075B1E08E0028E4D162
:1014000042462946204600F0F4FC08B120206065E1
:10141000A06820B107E008E0FFE7032706E02068A6
:10142000C16880680090606D00B1012784F851B0F8
:1014300084F850A038466BE72DE9F84F044690F841
:10144000500000270A9E1D4692468B464FF0010928
:1014500001280ED0012084F85000FFF7AFFB804632
:1014600094F85100616801280CD0B1F5827F07D152
:1014700002E00220BDE8F88FA16809B9042801D074
:101480000227C2E0BBF1000F27D0BAF1000F24D031
:101490001DB394F85100042802D0052084F85100AF
:1014A00000206065C4F838A0E587A587C4F830B08F
:1014B000E586A5862064606420680168490603D437
:1014C000016841F040010160E068B0F5006F6068BC
:1014D00005D0E8B3012D46D07FE0012795E008B1A3
:1014E000012D39D1206B21680088C860206B801CD9
:1014F0002063E08E401EE0862EE020688168890728
:101500000FD5E18E69B1B9F1010F0AD1216B0988BC
:10151000C160206B801C2063E08E401EE0864FF08F
:10152000000920688168C9070CD0E18F51B1C068FB
:10153000A16B0880A06B801CA063E08F401EE08739
:101540004FF00109FFF73AFBA0EB0800B04200E0C2
:1015500009E001D3701C50D1E08E0028CDD1E08F7E
:101560000028CAD13FE0206B216800780873206B07
:10157000401C2063E08E401EE0862EE020688168DB
:1015800089070FD5E18E69B1B9F1010F0AD1216B3D
:1015900009780173206B401C2063E08E401EE086BA
:1015A0004FF0000920688168C9070CD0E18F51B164
:1015B000C068A16B0870A06B401CA063E08F401E48
:1015C000E0874FF00109FFF7F9FAA0EB0800B042FD
:1015D00002D3701C01D010E07EB1E08E0028CDD186
:1015E000E08F0028CAD142463146204600F001FC77
:1015F00028B101272020606507E0032705E0A068E7
:1016000018B92068C16880680090012084F85100F2
:10161000002084F8500038462CE710B5401EB0F189
:10162000807F01D3012010BD4FF0E02460610F21C5
:10163000601700F069FE0020A061072020610020F3
:1016400010BD7047704770B590F83C20012A19D042
:10165000012400F83C4F0222427050F83C3C5A688A
:101660009D6822F070060A684968324325F08005BB
:1016700029435A6050F83C2C91604470002101705D
:10168000084670BD022070BD10B5040003D094F868
:101690003D0010B107E0012010BD002084F83C009F
:1016A000204600F00DF8022084F83D00211D20683E
:1016B00000F06CFC012084F83D00002010BD00000B
:1016C00008B501681448B1F1804F14D0134A914213
:1016D00020D1C16941F00201C161C069002200F05E
:1016E0000200009011461D20FFF7D4FA1D20BDE82E
:1016F0000840FFF7C1BAC16941F00101C161C06989
:10170000002200F00100009001211C20FFF7C2FA26
:101710001C20ECE708BD000000100240000400405F
:1017200070B5044690F83C00012817D0012584F8D4
:101730003C50022084F83D002068826822F0770245
:1017400022F47F4282600868502830D00DDC2028C7
:101750004DD005DC98B310283BD148E0022070BD85
:10176000302844D0402834D139E0602828D070286F
:1017700006D0B0F5805F2CD0B0F5005F29D10AE02B
:10178000CB68D1E90121206800F036FC206881682F
:1017900041F0770109E0CB68D1E90121206800F030
:1017A0002BFC2068816841F48041816011E0CA68A7
:1017B0004968206800F032FC5021206807E016E0FC
:1017C000CA684968206800F03AFC6021206800F08F
:1017D0001DFC84F83D50002084F83C0070BDCA68B0
:1017E0004968206800F01AFC40212068EFE7226871
:1017F00001461046EBE7704770B504460068016982
:101800004FF00005C943890715D4C168C94389074A
:1018100011D4E91E016101202077206880698007CA
:10182000204602D0FFF7E7FF04E000F098F82046DA
:1018300000F096F8257720680169C943490717D455
:10184000C168C943490713D46FF004010161022044
:1018500020772068806910F4407F204602D0FFF78F
:10186000CAFF04E000F07BF8204600F079F8257705
:1018700020680169C943090716D4C168C94309072B
:1018800012D46FF008010161042020772068C0693C
:101890008007204602D0FFF7AEFF04E000F05FF8BB
:1018A000204600F05DF8257720680169C943C90624
:1018B00017D4C168C943C90613D46FF01001016180
:1018C000082020772068C06910F4407F204602D0AD
:1018D000FFF791FF04E000F042F8204600F040F8E6
:1018E000257720680169C943C90708D1C168C94380
:1018F000C90704D1891E0161204600F032F8206832
:101900000169C943090609D4C168C943090605D458
:101910006FF0800101612046FFF793FE20680169A6
:10192000C943490609D4C168C943490605D46FF0C3
:1019300040010161204600F015F820680169C943A3
:1019400089060BD4C168C943890607D46FF020010A
:1019500001612046BDE87040FFF774BE70BD70475E
:10196000704770477047704770B50268044610684A
:10197000D168536910F00F0F51D003F0010501F445
:10198000907635435DD0C20705D0CA0503D5E26B1A
:1019900042F00102E263420705D5DA0703D0E26BA9
:1019A00042F00202E263820705D5DA0703D0E26B58
:1019B00042F00402E263020705D5DA0703D0E26BC6
:1019C00042F00802E263E26B002A34D0800604D5BC
:1019D000880602D5204600F05AFB20684069E16B7A
:1019E000C0F3801001F008010143204624D000F02C
:1019F00040FB2068416949061AD5416921F0400140
:101A00004161606BA0B11B494163606BFEF75EFFF3
:101A1000002810D0606B416BBDE87040084783061A
:101A20000FD58B060DD52046BDE8704000F02FBBCA
:101A30002046FFF798FF70BDFFF795FF0020E06399
:101A400070BD030606D50B0604D52046BDE87040E0
:101A500000F0C4BB4006F3D54806F1D5D168204656
:101A600021F04001D160202184F8391000F0D4F831
:101A700070BD00006320000870B5040004D094F825
:101A80003900002510B106E0012070BD84F83850FF
:101A9000204600F023F8242084F839002068C1682B
:101AA00021F40051C160204600F03CFB2068016930
:101AB00021F4904101612068416921F02A014161CE
:101AC0002068C16841F40051C160E563202084F8BA
:101AD000390084F83A00002070BD000030B585B0B0
:101AE00000240094019402940394006818498842E9
:101AF0002CD11848816941F480418161816901F4E8
:101B000080410491816941F0040181618069124D35
:101B100000F0040004904FF4007000900220019047
:101B20000320039069462846FEF752FF2815CDE9A9
:101B30000004694628460294FEF74AFF0022114637
:101B40002520FFF7A7F82520FFF796F805B030BD50
:101B500000380140001002400008014070472DE9A4
:101B6000F843044690F839001F4616460D462028D3
:101B700050D1A5B19EB194F8380001284AD0012077
:101B800084F838004FF00008C4F83C80212084F825
:101B90003900FFF713F8A6848146E68426E0012089
:101BA000BDE8F883E08C401EE084A0684B46B0F5A9
:101BB000805F4FF000024FF080012046009703D075
:101BC00000F03DFBE8B90DE000F039FBC8B928880A
:101BD0002168C0F308004860206908B16D1C05E069
:101BE000AD1C03E0216815F8010B4860E08C00286B
:101BF000D8D14B46002240212046009700F01FFB21
:101C000008B10320CCE7202084F8390084F838801C
:101C10000020C5E70220C3E77047FEE72DE9F04149
:101C200086B00025274800950195029503958169A6
:101C300041F020018161816901F0200104918169F5
:101C400041F004018161816901F00401049181691D
:101C500041F0080181618069DFF86C8000F00800C4
:101C60000490012202214046FEF7A2FF01229702C2
:101C700039464046FEF79CFF012414486946CDE9E9
:101C8000004040460294FEF7A3FE03200226CDE961
:101C90000240CDE9006469464046FEF799FE01AA7C
:101CA000009782E8700069464046FEF791FE0022E8
:101CB00011460620FEF7EEFF0620FEF7DDFF06B018
:101CC000BDE8F08100100240000C0140000021102E
:101CD0000C480B494FF4007201604FF4827141606F
:101CE00000218160C1600161C0E905121022C0E9D4
:101CF0000721416281620A21C162FFF779BA0000BF
:101D000000300140CC02002010B586B000241248FB
:101D1000009401940294039404944FF0804105943C
:101D2000016041F61F41C0E9011440F69F71C0E90E
:101D300003148461FFF7A8FC4FF4805000906946BB
:101D40000548FFF7EDFC049404A903480594FFF748
:101D50007AFC06B010BD00002403002010B586B048
:101D600000241248009401940294039404940E49B0
:101D70000594016041F61F41C0E9011442F20F7160
:101D8000C0E903148461FFF77FFC4FF4805000909A
:101D900069460648FFF7C4FC049404A90348059467
:101DA000FFF751FC06B010BD0004004064030020A2
:101DB000FEE7FEF763BC000010B54FF40074214647
:101DC0000448FEF715FC010003D0024800F004F8B7
:101DD000F5E710BDCA000020027B082A06D1427B2D
:101DE000062A03D1292901D9FEF726BA7047704780
:101DF000704738B50B46009204460022802100F05F
:101E000027F8002804D0606D40F0200060650320B2
:101E100038BD00000EB5FF208DF804000A200090A8
:101E20000448012302AA01A94068FFF705FB9DF8B9
:101E300008000EBD0000002001B504480A2301225D
:101E400069464068FFF74AFA08BD0000000000201C
:101E50002DE9F0411D4617460E460446DDF8188070
:101E600008E0681C06D0FEF7A9FEA0EB0800A84217
:101E70000BD255B12068806836EA000030D00020CF
:101E8000B842EED10020BDE8F0812068416821F021
:101E9000E00141606068B0F5827F0BD1A068B0F5C9
:101EA000004F02D0B0F5806F04D12068016821F0A6
:101EB00040010160A06AB0F5005F09D120680168A7
:101EC00021F4005101602068016841F40051016073
:101ED000012084F85100002084F850000320D2E74C
:101EE0000120CDE77047FEF76FBE30B58FB02821D7
:101EF0006846FEF72EF914210AA8FEF72AF90121F7
:101F00000804CDE900100024029402250491CDE9D3
:101F100007504FF4E01009906846FEF7D9FF0F20F4
:101F2000CDE90A056802CDE90C4002210AA80E9409
:101F3000FEF7E2FE0FB030BD0D48016841F001012F
:101F4000016041680B4A1140416001680A4A114032
:101F50000160016821F480210160416821F4FE01E3
:101F600041604FF41F0181600449C003086070475D
:101F7000001002400000FFF8FFFFF6FE08ED00E051
:101F80000148FFF739BC000024030020F0B50268C7
:101F9000164B174C174D4FF08047984205D0B8426A
:101FA00003D0A04201D0A84203D122F070064A68B3
:101FB0003243984205D0B84203D0A04201D0A84293
:101FC00003D122F44074CA6822434C6922F0800293
:101FD000224302608A68C2620A688262984201D122
:101FE0000969016301214161F0BD0000002C01403D
:101FF000000400400008004010B5846842EA032253
:1020000024F47F440A432243826010BD826822F098
:1020100070020A4342F007018160704710B5036AFD
:10202000046A24F001040462846924F0F00444EAA0
:10203000021423F00A020A438461026210BD10B543
:10204000036A23F0100303628369046A23F4704374
:1020500043EA023224F0A00343EA011182610162E3
:1020600010BD10B5406A0021C185C184FFF77BFC1B
:1020700010BD0168CA6822F49072CA6001684A699A
:1020800022F001024A61202180F83A10704710B511
:1020900090F83A10222901D0022010BD8168B1F5D4
:1020A000805F11D00169002901681FD0496801F0E3
:1020B0007F03816A4A1C82620B70C18D491E09042C
:1020C000090CC18518D02BE00269816A002A0268D8
:1020D000526805D0D2B20A80816A491C8162ECE75D
:1020E000C2F308020A80816A891CF7E74A68816A9C
:1020F0004B1C83620A70E0E70168CA6822F0200284
:10210000CA600168CA6822F48072CA6001684A69BC
:1021100022F001024A61202180F83A10FFF71EFDEB
:10212000002010BD2DE9F041044600680169E26815
:1021300021F44051114301612169A068084361699C
:1021400008432168CA6841F20C639A430243CA609B
:1021500020684169A26921F44071114341611E491F
:10216000206864253226884202D1FEF76BFE01E02A
:10217000FEF758FE00EBC00101EB001160686FF044
:1021800018078000B1FBF0F2B2FBF5F2B1FBF0F3FF
:102190007A4303EB8202B1FBF0F306EB0212B2FBCF
:1021A000F5F2B3FBF5F302F0F00202EB0312B1FB20
:1021B000F0F3B1FBF0F0B0FBF5F0784303EB8000F7
:1021C00006EB0010B0FBF5F0216800F00F001044A2
:1021D0008860BDE8F08100000038014090F83910B7
:1021E000212901D0022070478168B1F5805F016A22
:1021F0000BD04A1C0262026809785160C18C491EEA
:102200000904090CC1840ED017E009880268C1F3E3
:102210000801516001690029016A02D0491C01626C
:10222000ECE7891CFBE70168CA6822F08002CA60FB
:102230000068C16841F04001C160002070472DE98D
:10224000F041984617460E460446069D1DE0681C60
:102250001BD02DB1FEF7B2FCA0EB0800A84214D9A8
:102260002068C16821F4D071C1602068416921F003
:1022700001014161202084F8390084F83A000020EF
:1022800084F838000320BDE8F0812068006836EA51
:10229000000004D00020B842D9D00020F3E701208C
:1022A000F9E70000014908607047000008000020BD
:1022B00010B50446FDF758FF82B204482146642356
:1022C0000068BDE81040FFF74ABC0000080000208D
:1022D0000148FFF749BB0000A4030020FEE700000F
:1022E0000FB4084B10B504A902AA039800F02CF80B
:1022F000044602A9002000F058FA204610BC5DF800
:1023000014FB0000AB2700080907090E002804DBB6
:1023100000F1E02080F80014704700F00F0000F199
:10232000E02080F8141D704702E008C8121F08C1A1
:10233000002AFAD170477047002001E001C1121F46
:10234000002AFBD1704700002DE9FF4F8DB00F46EA
:102350000546002606E025280BD0DDE90F12904740
:102360006D1C761C28780028F5D111B03046BDE8E8
:10237000F08F0024A246A1460122EC4900E004436C
:1023800015F8013F203B02FA03F00842F7D1287804
:102390002A2810D06FF02F022878A0F130010929E7
:1023A00014D80AEB8A0102EB410144F0020400EB6D
:1023B000010A6D1CF0E701CF5FEA000A03D544F47F
:1023C0000054CAF1000A44F002046D1C28782E283B
:1023D00017D115F8010F44F004042A280ED06FF02D
:1023E0002F022878A0F1300109290AD809EB8901C8
:1023F00002EB410100EB01096D1CF2E757F8049B69
:102400006D1C28786C280FD006DC4C2817D0682863
:102410000DD06A2814D104E0742810D07A280FD186
:102420000DE044F400140AE044F4801401E044F4A4
:1024300040146978814202D104F580146D1C6D1C32
:102440002A786E2A1FD00CDC632A31D004DC002AE3
:102450008BD0582A11D1A3E0642A68D0692A0CD104
:1024600065E0732A2ED004DC6F2A73D0702A04D161
:102470009BE0752A6FD0782A6ED01046DDE90F12E6
:102480009047761C50E1C4F30250022806D003287E
:1024900009D0042801CF09D0066045E101CFF1172A
:1024A000C0E9006140E101CF06803DE106703BE1FB
:1024B00017F8040B8DF8000000208DF80100EB46A2
:1024C000012003E057F804BB4FF0FF3061074FF0E5
:1024D000000102D40DE008F10101884649450FDAF8
:1024E0008045F8DB1BF808100029F4D108E008F15A
:1024F000010188468142FADB1BF808100029F6D159
:10250000DDE90F23AAEB08008146214600F036F9E9
:10251000304400EB080604E0DDE90F121BF8010B64
:102520009047B8F10108F7D221464846F7E00A2162
:10253000C4F302534FF0000B0891022B04D001CFDB
:10254000C117032B09D00AE0FF1D27F00707F7E8A2
:10255000020108E032E01FE020E000B2C117042BC6
:1025600001D140B2C117031E71F1000307DA4FF029
:10257000000CD0EB0C006CEB01012D2302E02305D5
:1025800004D52B238DF82430012303E0E30701D089
:102590002023F7E7984658E00A2110E010210EE0CA
:1025A00010204FF0000B08900CE010214FF0000BB2
:1025B00044F004044FF00809089103E008214FF0AB
:1025C000000B0891C4F30253022B04D001CF002169
:1025D000032B06D006E0FF1D27F00707F7E80201EE
:1025E00003E080B2042B00D1C0B24FF000082307F3
:1025F0002BD5702A07D0DDF820C08CF0100C5CEAD7
:102600000B0C05D00EE040238DF82430012308E0A8
:1026100050EA010306D030238DF824308DF82520B0
:1026200002239846DDF820C08CF0080C5CEA0B0C05
:102630000BD150EA010301D1630706D530238DF891
:1026400024304FF00108A9F10109582A04D038A21A
:102650000B9208AA0A920BE03AA2F9E75B46089AA5
:10266000FDF796FD0B9B9B5C0A9A521E0A92137013
:1026700050EA0102F2D10A98ADEB000000F1200B04
:10268000600702D524F4803401E04FF00109D945F8
:1026900002DDA9EB0B0000E0002000EB0B01414440
:1026A0000890AAEB010AE00306D4DDE90F232146D6
:1026B000504600F063F806444FF0000908E009A90D
:1026C00011F80900DDE90F12904709F10109761CA4
:1026D000C145F4DBE0030CD5DDE90F23214650466C
:1026E00000F04CF8064404E0DDE90F12302090477A
:1026F000761C0899481E08900029F5DC08E00A9825
:102700000A990078491C0A91DDE90F129047761C5E
:10271000BBF10001ABF1010BF1DC21465046DDE9D4
:102720000F2300F019F806446D1C1BE60928010070
:102730003031323334353637383961626364656637
:1027400000000000303132333435363738394142F9
:1027500043444546000000002DE9F04104460025B1
:102760001E461746880404D405E039462020B047A9
:102770006D1C641EF9D52846BDE8F0812DE9F041B5
:10278000044600251E469046C80301D5302700E0C8
:102790002027880404D505E041463846B0476D1C23
:1027A000641EF9D52846BDE8F0810A68531C0B6009
:1027B000107070478AB04C4C4A4861688161A168CA
:1027C000C0F82210E168C1622169C0F83610616961
:1027D0000164A169C161A18B0184D4F81E10C0F805
:1027E0002610618C4185616A0163218D8186D4F850
:1027F0002A10C0F83A10E18DC187216B4164A18E87
:10280000A0F84810FEF7E8F9FFF76FFBFFF706FAAC
:10281000FFF75EFA3348354928380C2201604FF43F
:10282000E131416000218160C160C0E90412816131
:10283000C161FFF721F9FFF767FAFFF78FFA29481F
:102840002838FFF72FFD2A48FDF79EFF2948FFF79C
:102850002FFD244E0025183605EB850106EB4100BF
:10286000C37990F809C0077A8279CDE90523CDE9CB
:10287000077CC37890F805C007798278CDE90123F9
:10288000CDE9037C4078009016F811306A1C1A4993
:102890001A48FFF725FD1948FFF70AFD6D1C052DA5
:1028A000DADB17A0FFF704FD164E4FF4806500BF7A
:1028B000FFF782FA1420FEF755F820680128F7D1B7
:1028C000002229463046FEF773F9C820FEF74AF881
:1028D000012229463046FEF76BF9C820FEF742F880
:1028E000E6E70000CC03002014000020003801407F
:1028F000CC0200206C290008B02900085C000020F0
:102900000D0A0000000C0140000000000000000063
:102910000102030406070809000000000102030485
:10292000446961206368692074686965742062691C
:10293000206C612049702025692E25692E25692E7D
:102940002569203D204D616320253032583A2530DD
:1029500032583A253032583A253032583A253032FA
:10296000583A253032580D0A000000004B686F6954
:1029700020646F6E67207468616E6820636F6E6795
:102980000D0A496E207261206469612063686920C4
:10299000636163207468696574206269206C757571
:1029A0002074726F6E672062616E670D0A0A000004
:1029B0005468696574206269202569204970202562
:1029C000692E25692E25692E2569203D204D6163DC
:1029D00020253032583A253032583A253032583A8C
:1029E000253032583A253032583A253032580D0ABF
:1029F00000000000142A0008000000205C00000015
:102A000028230008702A00085C000020BC07000092
:102A10003823000800000000000000000000000053
:102A2000010000000000000001000000C0A800023A
:102A3000C0A80005C0A80006C0A80066C0A800CABB
:102A4000088FC3834AA6E0DCA0B26A7CE0DCA0B2B7
:102A50006B28E0DCA0B08DCEE0DCA0B08D6F000074
:102A60000100000010000000000000000024F4003D
:04000005080000ED02
:00000001FF
